:020000040800F2
:100000006804002005010008490F0008750E00086B
:10001000450F0008690B0008CB1500080000000020
:10002000000000000000000000000000A511000812
:10003000490C00080000000011110008911200088E
:100040001F0100081F0100081F0100081F01000810
:100050001F0100081F0100081F0100081F01000800
:100060001F0100081F0100081F0100081F010008F0
:100070001F0100081F0100081F0100081F010008E0
:100080001F0100081F0100081F0100081F010008D0
:100090001F0100081F0100081F0100081F010008C0
:1000A0001F0100081F0100081F0100081F010008B0
:1000B000F51200081F0100081F0100081F010008B9
:1000C0001F0100081F0100081F0100081F01000890
:1000D0001F0100081F0100081F0100081F01000880
:1000E0001F0100081F0100081F010008DFF810D0E1
:1000F00000F0BCFB00480047851E0008AFF30080FD
:10010000680400200648804706480047FEE7FEE7EF
:10011000FEE7FEE7FEE7FEE7FEE7FEE7FEE7FEE7B7
:1001200095120008ED000008F0B480EA0102D40F37
:100130004200B2EB410F02D20246084611464A0085
:1001400042D0C30DDDB2C1F3C752AD1A202D35DA4E
:10015000C1F3160141F4000204B15242C5F1200678
:1001600002FA06F12A411044B3EBD05F23D0C4B1A8
:10017000012DA0EBC35009DCF0BC4FF0004202EAB5
:10018000C352DBB200F5000000F0A4BA400000F159
:10019000807000EBC350A0F1807040EAD17049003C
:1001A00009E0490841EAC071A0EBC35000F5000026
:1001B000400800EBC350F0BC00F083BA614201225A
:1001C00002EB4101001BF6E7F0BC704781F00041F3
:1001D000AAE780F00040A7E780EA010210B502F02C
:1001E0000043400022D04A001FD0010E01EB1261F3
:1001F000C0F35600C2F3560240F4000042F400027D
:10020000A0FB022000047F39140400D0401C50EAF7
:10021000124001D44000491EC2B20C0604EBD010BB
:10022000401C4008802A02D003E0002010BD20F0CE
:100230000100002900DA0020184310BD30B480EA24
:10024000010202F0004530F0004221F0004013D0DE
:1002500090B1C30DD40DC2F31601C0F31600E41A19
:1002600041F4000140F400027D34914201D3641C4A
:1002700000E04900002C02DA30BC002070474FF447
:1002800000000023914201D3891A034340084FEA3A
:100290004101F7D151B1914202D14FF0004105E047
:1002A00002D24FF0010101E06FF0010103EBC450F5
:1002B000284430BC00F005BA2DE9FE4F804681EAA3
:1002C0000300C00F0C46009021F0004123F00045D0
:1002D000B8EB0200A94105D24046214690461C4693
:1002E0000B46024623F00040104347D0270DC7F3CA
:1002F0000A00C3F30A510290401A019040286BDAB9
:10030000C3F3130040F4801B0098924620B10023F1
:10031000D2EB030A63EB0B0B01985946C0F1400284
:10032000504600F0ADF906460D4650465946019A32
:1003300000F0B5F910EB08006141002487EA115282
:1003400084EAE7731A4340D0009A62B3019A012A03
:100350004FEA075215DC001B61EB02014FF000422F
:1003600002EA0752CDE90042001C41F580113246F5
:100370002B4600F0ECF903B0BDE8F08F4046214673
:10038000F9E7001B61EB0201001C41F58013001826
:100390005B412018A2F5001747EB030140EAD57036
:1003A000B6196D4111E06D084FEA360645EAC07591
:1003B0004FEA0752001B61EB0201001C41F580115E
:1003C00049084FEA30000019514132462B4603B02C
:1003D000BDE8F04F00F0ACB90098012240000023C6
:1003E000D0EB020263EBE073009821464FEAE07421
:1003F000B8EB000061EB0401E9E783F000435BE741
:1004000081F0004158E72DE9FE4F81EA030404F032
:10041000004421F0004100944FF0000B23F0004312
:1004200050EA01045ED052EA03045BD0C3F30A54DD
:10043000C1F30A552C44A4F2F3340194A0FB0254F6
:10044000C1F3130141F48011C3F3130343F4801388
:1004500001FB024400FB034E840A970A44EA8154DC
:1004600047EA8357A4FB076802958D0A05FB0785B9
:100470004FEA932C04FB0C542705029D4FEA0658C3
:1004800047EA1637B5EB08056EEB070C870E920EA0
:1004900047EA811742EA8312A7FB0201B6EB0B0180
:1004A00064EB00042B0D43EA0C335E1844EB1C5044
:1004B000DA465146E7FB0201C5F313044FEA0B335A
:1004C00043EA14534FEA0432019C43EA0603A4F1C1
:1004D0000C040294009CCDE900B400F038F903B09C
:1004E000BDE8F08F00200146F9E72DE9F04D81EAE3
:1004F000030404F0004B21F0004514464FF0000ABD
:1005000023F0004150EA050220D054EA01021DD038
:10051000C5F30A570246C5F31303C1F31300C1F331
:100520000A5640F4801543F48013A7EB0608101B0D
:10053000D64608F2FD3873EB050002D308F1010836
:1005400001E092185B41B8F1000F03DA0020014688
:10055000BDE8F08D00204FF48011064684460EE081
:10056000171B73EB050705D3121B63EB050306434B
:100570004CEA010C49084FEA300092185B4150EAFE
:100580000107EDD152EA030012D082EA040083EAA7
:100590000501084305D0101BAB4106D20122002300
:1005A00006E000224FF0004302E06FF0010253101A
:1005B0001AEB06004CEB085110EB0A0041EB0B0163
:1005C000BDE8F04D00F0B4B8C10F80EAE070084417
:1005D000CA079623002100F07DB896230022114619
:1005E00000F078B820F00040C10DC0F3160040F4D0
:1005F00000007F2901DA00207047962903DCC1F151
:100600009601C840704796398840704700F0004214
:1006100030F000400AD0C10D01F56071C0F3160042
:1006200042EA0151C20840071143704700200146C9
:10063000704701F0004330B421F0004150EA01025C
:1006400006D00A0DA2F56072C1F31301002A02DC84
:1006500030BC00207047440F44EAC104C100E018D8
:1006600030BC00EBC25000F02CB80000002801DBC9
:10067000C0F10040002901DBC1F100418142704717
:10068000202A04DB203A00FA02F100207047914052
:10069000C2F1200320FA03F3194390407047202A47
:1006A00006DBCB17203A41FA02F043EAE07306E09A
:1006B00041FA02F3D040C2F12002914008431946AA
:1006C00070470029A8BF7047401C490008BF20F0B0
:1006D0000100704710B4B0FA80FC00FA0CF050EA48
:1006E000010404BF10BC704749B1CCF1200421FAC9
:1006F00004F411FA0CF118BF012121430843A3EBC4
:100700000C01CB1D4FEA00614FEA102042BF0020D0
:1007100010BC704700EBC35010440029A4BF10BCAC
:100720007047401C490008BF20F0010010BC704712
:1007300010B5141E73F1000408DA401C41F10001E9
:1007400092185B411A4301D120F0010010BD2DE940
:10075000F04D92469B4611B1B1FA81F202E0B0FA37
:1007600080F220329046FFF78BFF04460F4640EAA6
:100770000A0041EA0B0153465A46084313D011467A
:1007800053EA010019D0C8F14002504600F080F849
:1007900005460E46504659464246FFF771FF08434C
:1007A00005D0012004E020463946BDE8F08D002048
:1007B000054346EAE0762C4337430A986305E40A8A
:1007C000A0EB08000022FD0A44EA47540A3002D593
:1007D00000200146E9E7010510196941DDE90845F6
:1007E00000196941BDE8F04DA2E770B521F0004362
:1007F00003430CD0C1F30A550024D5EB040564EB88
:100800000403D617AD1AB34102DB0020014670BDC8
:10081000201841EB025170BD0EB5C10F80EAE070A7
:100820000844CA07002140F233438DE80E000A460F
:100830000B46FFF78CFF03B000BD000030B5041E6F
:1008400071F1000404DB4FF00044404264EB01010D
:10085000141E73F1000405DB1C464FF000435242A6
:1008600063EB04038B4208BF824230BD064C074D48
:1008700006E0E06840F0010394E807009847103470
:10088000AC42F6D3FFF736FC2821000848210008C7
:10089000202A04DB203A21FA02F00021704721FAD5
:1008A00002F3D040C2F1200291400843194670473C
:1008B00021B1826842F00102826003E0826822F086
:1008C000010282607047000010B50446124884425D
:1008D00008D10121401500F049FC0021601500F00D
:1008E00045FC17E00D48844208D10121001500F0B5
:1008F0003DFC0021201500F039FC0BE00848844243
:1009000008D10121C80300F031FC00214FF4004060
:1009100000F02CFC10BD0000002401400028014024
:10092000003C0140014600208A6802F004020AB13E
:10093000012000E0002070470146C86C80B270477B
:100940000246002013680B400BB1012000E000209C
:100950007047014600208A6802F008020AB10120AF
:1009600000E000207047000030B502460020002360
:1009700050680F4C20400D790C6844EA0524204350
:10098000506090680B4C2040D1E902542C434D79C3
:1009900044EA450420439060D06A20F470000C7C47
:1009A000641EE4B2234340EA0350D06230BD00002D
:1009B000FFFEF0FFFDF7F1FFF0B504460D46002005
:1009C0000021092D11DDE068A5F10A0606EB4607B6
:1009D000072606FA07F18843A5F10A0606EB460644
:1009E00003FA06F10843E0600CE0206905EB4507D7
:1009F000072606FA07F1884305EB450603FA06F1D8
:100A000008432061072A0FDA606B561E06EB860743
:100A10001F2606FA07F18843561E06EB860605FADE
:100A200006F10843606322E00D2A0FDA206BD61F1F
:100A300006EB86071F2606FA07F18843D61F06EB4A
:100A4000860605FA06F10843206310E0E06AA2F189
:100A50000D0606EB86071F2606FA07F18843A2F16A
:100A60000D0606EB860605FA06F10843E062F0BDC6
:100A7000816841F008018160704721B1826842F4C9
:100A8000A002826003E0826822F4A00282607047C4
:100A9000816841F0040181607047000000B587B0B3
:100AA00001214FF4017000F051FB4FF4004000F0C1
:100AB00031FB0220ADF8040000208DF8070001A9E9
:100AC000194800F0C2F81948FFF7FEFE0020029016
:100AD0008DF80C008DF80D004FF46020049000207C
:100AE000059001208DF8180002A91048FFF73CFF7F
:100AF00001210E48FFF7DCFE0C48FFF7B9FF00BFED
:100B00000A48FFF726FF0028FAD10848FFF7C0FF80
:100B100000BF0648FFF706FF0028FAD1012103486D
:100B2000FFF7ABFF07B000BD000801400024014003
:100B300008B50121082000F009FB4FF48060ADF8F2
:100B4000000010208DF8030003208DF80200694694
:100B5000044800F07AF84FF48061024800F048F948
:100B600008BD0000000C014000BFFEE72DE9F14F79
:100B70008AB00A98FFF731FD8046FFF747FD064629
:100B80004FF06632274BFFF73EFC0446FFF751FD5E
:100B900008900898FFF73AFD06464FF06632224B60
:100BA000FFF72EFC04460D460898FFF72FFD06467A
:100BB0001E4A1F4BFFF727FC804622462B46FFF7B5
:100BC00094FC8246FFF735FD07900798FFF71EFD5E
:100BD0008046164A164BFFF788FCCDE9000100F06D
:100BE000A3FF0022134BCDE90201FFF77EFC124A5E
:100BF000124BCDE90401FFF75FFB064632460B4678
:100C000000200F49FFF771FC04464FF066320D4B90
:100C1000FFF7F3FB8246FFF70CFD069006980BB03A
:100C2000BDE8F08F66664A3F66660A40CDCCCCCC04
:100C3000CCCC124000DCAE4083DBB5DCE1796B3F0D
:100C40000000F03F6612714070472DE9F041024606
:100C500000250026002000230024002791F803C06F
:100C60000CF00F0591F803C00CF0100CBCF1000F54
:100C700003D091F802C04CEA050591F800C0BCF120
:100C8000000F31D0146800202BE04FF0010C0CFA5B
:100C900000F3B1F800C00CEA03069E4220D18300A5
:100CA0004FF00F0C0CFA03F7BC4305FA03FC4CEAB7
:100CB000040491F803C0BCF1280F06D14FF0010CD9
:100CC0000CFA00FCC2F814C00AE091F803C0BCF1B1
:100CD000480F05D14FF0010C0CFA00FCC2F810C00F
:100CE000401C0828D1D31460B1F800C0BCF1FF0F3C
:100CF00034DD546800202EE000F1080C4FF00108AC
:100D000008FA0CF3B1F800C00CEA03069E4221D1A8
:100D100083004FF00F0C0CFA03F7BC4305FA03FCF9
:100D20004CEA040491F803C0BCF1280F05D100F18E
:100D3000080C08FA0CF8C2F8148091F803C0BCF152
:100D4000480F07D100F1080C4FF0010808FA0CF821
:100D5000C2F81080401C0828CED35460BDE8F08152
:100D6000F0B50A46002300240021002500F00046CB
:100D7000B6F1004F02D11D4EF16901E01B4E7168C2
:100D8000C0F3034583B200F44016B6F5401F08D106
:100D900021F07061154E766826F07066134F7E6004
:100DA00012E000F48016B6F5801F06D1032606FA7D
:100DB00005F4A14341F0706106E0460D360103FAE7
:100DC00006F6B14341F0706122B1460D360103FAD7
:100DD00006F6314300F00046B6F1004F02D1034E53
:100DE000F16101E0014E7160F0BD000000000140C2
:100DF00001617047C160704770B504460723012246
:100E000021460A48FFF7D8FD01210848FFF735FEC3
:100E100000BF02210548FFF793FD0028F9D00348E1
:100E2000FFF78AFD0546FFF7D8FB70BD002401409F
:100E30002DE9F04707460C460025002613E038460A
:100E4000FFF7DAFF81462846FFF7C7FB824649468F
:100E5000FFF76AF98046FFF7C5FB0546052000F05D
:100E6000C3FC701CC6B2A642E9DBB5FBF4F080B24D
:100E7000BDE8F08700BFFEE708B50121082000F0BB
:100E800065F94FF4D850ADF8000048208DF8030004
:100E900069460248FFF7D9FE08BD00000010014076
:100EA00010B50446012C01D124490870234800786C
:100EB00001282BD12248006858B121480C30006825
:100EC00038B11F48001D006818B11D481030006877
:100ED000E0B9012000F088FC00201849087018488B
:100EE000006808B9012010BD15480C30006808B929
:100EF0000220F8E71248001D006808B90320F2E755
:100F00000F4810300068B0B90420ECE70C480068C6
:100F1000012810D10A480C30006801280BD108487C
:100F2000001D0068012806D105481030006801281E
:100F300001D1024908700020D5E700000000002020
:100F40002001224200BFFEE77047000070B500217B
:100F500000230F22C47804B3154C246804F4E06421
:100F6000C4F5E064210AC1F10403CA40447804FADC
:100F700003F184781440214309010E4C0678A155F1
:100F8000047804F01F050124AC4005786D11AD0014
:100F900005F1E025C5F8004109E0047804F01F05DB
:100FA0000124AC40044D0678761145F8264070BD0A
:100FB0000CED00E000E400E080E100E002490143C4
:100FC000024A1160704700000000FA050CED00E0D5
:100FD0002DE9F0474048806B3F49C968884201DAF3
:100FE000BDE8F0873C4A51681068FFF7EFF83A49CE
:100FF00088610A4691699068FFF7EEF83649886281
:101000000A469169106AFFF78FF8334908620A4669
:10101000D1699069FFF7DAF807462F49C868FFF7EA
:10102000D3FA82462C4801695046FFF707F9054676
:10103000294881682846FFF7CFF880462648016A8C
:101040004046FFF7C9F824494862C868FFF7BCFA70
:101050008246214948695146FFF7F0F806461E4985
:1010600088683146FFF7B8F8814639464846FFF7A9
:10107000B3F81949C8620A46516A906AFFF754F8F2
:1010800082461548C16A5046FFF74EF80446124999
:10109000C86BFFF799FA82462146FFF7E7FA06D2B6
:1010A0000D49C86BFFF790FA0B4948630BE000212C
:1010B0002046FFF7DBFA04D80748006B064948636F
:1010C00001E005484463044880690349C861002081
:1010D000886300BF84E70000240000200848094915
:1010E00088604FF4C870C8600748086107484861C5
:1010F000C820C8634FF07E500863002088637047A3
:101100000000F041240000200024744A00007A44CA
:101110007047000001460020034A506820F4404018
:1011200008435060704700000010024029B1064A91
:10113000D2690243044BDA6104E0034AD269824374
:10114000014BDA61704700000010024029B1064AE5
:1011500092690243044B9A6104E0034A9269824314
:10116000014B9A61704700000010024029B1064A05
:10117000D2680243044BDA6004E0034AD268824337
:10118000014BDA6070470000001002400146002069
:10119000034A506820F00300084350607047000085
:1011A00000100240704710B500F002F810BD0000BA
:1011B0000CB50020019000903348006840F4803066
:1011C0003149086000BF3048006800F400300090EA
:1011D0000198401C0190009818B90198B0F5A06FD3
:1011E000F1D12948006800F4003010B101200090CE
:1011F00001E0002000900098012843D123480068B6
:1012000040F01000214908600846006820F0030003
:1012100008600846006840F0020008601A4840680C
:10122000194948600846406848600846406840F4EC
:10123000806048600846406820F47C10486008469A
:10124000406840F4E81048600846006840F080704C
:10125000086000BF0C48006800F000700028F9D05A
:101260000948406820F00300074948600846406884
:1012700040F00200486000BF0348406800F00C00E6
:101280000828F9D10CBD00000010024000200240E7
:101290007047000010B51348006840F00100114984
:1012A000086008464068104908400E4948600846F2
:1012B00000680E4908400B4908600846006820F4A1
:1012C000802008600846406820F4FE0048604FF423
:1012D0001F008860FFF767FF4FF000600449086057
:1012E00010BD0000001002400000FFF8FFFFF6FEF6
:1012F00008ED00E010B50121880700F01CF840B1AE
:101300000448806B401C034988630121880700F072
:1013100003F810BD24000020CA430282704721B1A7
:10132000028842F00102028004E002884FF6FE7358
:101330001A400280704730B5024600200023002486
:10134000158A05EA0103958905EA010413B10CB178
:10135000012000E0002030BD1AB183890B43838156
:1013600002E083898B4383817047000070B50024BD
:1013700000220023058C4FF6EF7635400584028C61
:101380008388048B48F6FF752C404FF6FF452C40B0
:101390000D884FF6FF7606EA05252C434FF6DF75DC
:1013A0002A400D8906EA05152A434D8806EA0515E7
:1013B0002A43154DA84202D0144DA8421DD14FF624
:1013C0007F752A404D894FF6FF7606EA05152A43B8
:1013D0004FF6BF752A408D8806EA05152A434FF659
:1013E000FF352B404FF2FF752B408D8906EA8505AE
:1013F0002B43CD8906EA85052B4383800483CD8862
:101400000587028470BD0000002C014000340140BB
:101410000A460021018B4FF2FF7319404FF6FF730C
:1014200003EA0223194301837047018770470000D4
:10143000002202881D4B98420ED01D4B98420BD0C3
:10144000B0F1804F08D01B4B984205D01A4B984200
:1014500002D01A4B984204D14FF68F731A404B8832
:101460001A43174B984207D0164B984204D04FF6B8
:10147000FF431A40CB881A4302808B8883850B88F0
:1014800003850A4B98420BD0094B984208D00E4B6B
:10149000984205D00D4B984202D00D4B984201D195
:1014A0000B7A03860123838270470000002C0140E1
:1014B000003401400004004000080040000C0040DF
:1014C0000010004000140040004001400044014072
:1014D0000048014030B589B005460C46012109207D
:1014E000FFF734FE01211C48FFF73AFC2020ADF83D
:1014F000200018208DF8230003208DF8220008A971
:101500001648FFF7A2FB01210220FFF70FFEA8B249
:10151000ADF81800A0B2ADF814000020ADF8160028
:1015200005A90F48FFF784FF7020ADF804000120E3
:10153000ADF806000220ADF80C0001A90848FFF73D
:1015400015FF08210648FFF763FF01210448FFF754
:10155000E6FE09B030BD000000081A00000C014092
:10156000000400401FB501210846FFF7DFFD4FF4DE
:10157000C060FFF723FD1C208DF80C0001208DF8C2
:101580000D008DF80E008DF80F0003A8FFF7DEFCAC
:101590004FF47A70ADF804004720ADF80000002049
:1015A000ADF8020069464FF08040FFF741FF01228D
:1015B00011469007FFF7D0FE01218807FFF7ACFE28
:1015C00001218807FFF7ABFE1FBD00BFFEE72DE935
:1015D000F0414F1E00EBC7010446D1E9000115465A
:1015E0001E4637F006020DD02A463346FEF70BFFA3
:1015F0007F1E04EBC703D3E90023FEF75DFE37F03F
:101600000602F1D1022F25D0042F13D0062F18BFC8
:10161000BDE8F0812A463346FEF7F5FED4E90A23F9
:10162000FEF74AFE2A463346FEF7EDFED4E90823CC
:10163000FEF742FE2A463346FEF7E5FED4E90623CE
:10164000FEF73AFE2A463346FEF7DDFED4E90423D0
:10165000FEF732FE2A463346FEF7D5FED4E90223D2
:10166000FEF72AFE2A463346FEF7CDFED4E90023D4
:10167000BDE8F041FEF720BE0022134610460149A6
:10168000FEF733BF0000F03F0122FFF7AEB80022A3
:10169000134610461146FEF728BF02E008C8121F85
:1016A00008C1002AFAD170477047002001E001C14B
:1016B000121F002AFBD170470149086070470000E3
:1016C00020000020FFF74EFFFFF7D6FBFFF730FAB0
:1016D000FFF7E4F900F05AF800F0EAFB00F0F8F840
:1016E000FFF7FCFC22480068FEF77CFF85B2284625
:1016F000FFF73CFA0446FEF775FF1E49086000F04C
:10170000CFFC48F6A04140F28F10FFF7E3FE2DE03A
:1017100000F0D2FB18480068FEF75FFF1749086029
:10172000FFF756FC1549C86BFEF74EFF06461349F6
:10173000486B1349FEF750FD07463146FEF77EFD24
:1017400005464FF07E51FEF741FD0446FEF74AFF85
:101750000C4908600846008881B20B48FFF765FE17
:1017600000F01CFC00F0E4FB00F046FCD0E70000B9
:1017700018000020040000200800002024000020A1
:101780000000C843140000200004004008B50121F7
:101790000820FFF7DBFC4FF44050ADF800001020AC
:1017A0008DF8030003208DF8020069460648FFF714
:1017B0004CFA4FF480510448FFF71AFB4FF40051E4
:1017C0000148FFF715FB08BD000C0140002106E0B1
:1017D0000C2100BF0A1EA1F10103D9B2FAD1021EE9
:1017E000A0F10100F4D17047002107E04FF49661A9
:1017F00000BF0A1EA1F1010399B2FAD1021EA0F1A5
:10180000010398B2F2D1704708B501210820FFF713
:101810009DFC0820ADF8000003208DF80200102088
:101820008DF8030069460848FFF70FFA1020ADF85D
:10183000000069460448FFF708FA012003490860E0
:101840000349C1F8900108BD000C01408C81214280
:101850000080214210B5012000F01CF910BD0000ED
:1018600008B501210820FFF771FC01210820FFF7CE
:101870006DFC01210820FFF769FC01211020FFF712
:1018800065FC0120ADF8000010208DF80300032056
:101890008DF8020069460C48FFF7D7F90220ADF831
:1018A000000069460848FFF7D0F90420ADF80000B1
:1018B00069460548FFF7C9F9FF20ADF80000694601
:1018C0000248FFF7C2F908BD000C014000100140BA
:1018D00010B5FFF7C5FF382000F0DCF80C2000F051
:1018E000D9F8062000F0D6F8012000F0D3F810BD9A
:1018F0002DE9F04104460E4615461F464FF00008FC
:10190000012E01DC0F2C01DDBDE8F081012E19DA7A
:10191000C4F11000404505DD04F18001C8B200F0BB
:10192000B9F804E004F1B001C8B200F0B3F82FB187
:1019300005F13001C8B200F0D1F81CE0284600F0F3
:10194000CDF818E0C4F11000404505DD04F1C001F8
:10195000C8B200F09FF804E004F17001C8B200F0D2
:1019600099F82FB105F13001C8B200F0B7F802E0E4
:10197000284600F0B3F800BFC6E72DE9F05F054642
:10198000894690461E46DDF828A04FF0000B002443
:1019900032E0301B401EC1B20A2000F07EFAB8FBD4
:1019A000F0F00A21B0FBF1F201FB1207BBF1000FCE
:1019B00018D1701EA04215DD97B90AF0800038B129
:1019C0002919C8B2002330224946FFF791FF06E0EB
:1019D0002919C8B2002320224946FFF789FF09E0F0
:1019E0004FF0010B2919C8B201233A464946FFF7C7
:1019F0007FFF00BF601CC4B2B442CADBBDE8F09FE9
:101A00002DE9F04104460F4616460025012F01DC62
:101A10000F2C01DDBDE8F081012F1CDA17E0C4F1C5
:101A20001000A84206DD05F180012144C8B200F093
:101A300031F806E005F1C00121441039C8B200F0C8
:101A400029F8307800F04AF8761C681CC5B2307866
:101A50000028E4D11BE017E0C4F11000A84206DD25
:101A600005F1C0012144C8B200F014F806E005F108
:101A7000800121441039C8B200F00CF8307800F031
:101A80002DF8761C681CC5B230780028E4D100BF60
:101A9000C0E7000010B5044600200D4908600D495C
:101AA000C1F884010A490831086021460A48FFF755
:101AB000A1F96420FFF78AFE01200649C1F88801D8
:101AC0006420FFF783FE002001490831086010BD43
:101AD00080812142008021420010014010B504465F
:101AE00001200E49086000200D49C1F884010B490E
:101AF0000831086021460B48FFF77CF96420FFF7A6
:101B000065FE01200649C1F888016420FFF75EFEEA
:101B1000002002490831086010BD00008081214288
:101B200000802142001001402DE9F04DC84A0024F8
:101B300090B0914205DA21F00043934201D805D1DB
:101B400020B110B0BDE8F04DFFF79EBDB1F5801F8C
:101B50001BDA53EA000209D0002911DA0120FFF74D
:101B6000ABFD10B0BDE8F04DFFF791BD0220FFF7CF
:101B7000A3FDFFF781FD10B081F00041BDE8F08DBD
:101B80006FF035043622FEF730FE04EB2152C1F32C
:101B90001308B049A2F2FF33414401F4801282F0ED
:101BA0007F6103EB225281F04051009241EA08012B
:101BB0000022A94BFEF721FC044608F10200A74EC3
:101BC000C0F313000D467E44032867D2D6E90023F4
:101BD0002046FEF733FE1ED10098002802BFD6E94A
:101BE000000110B0BDE8F08DFEF716FE07460C466A
:101BF0009B4A9C4BFEF707FC06460D469A4A9B4BB8
:101C000038462146FEF7FFFB10B032462B46BDE8B2
:101C1000F04DFEF751BB4FF05532954B204629460B
:101C2000FEF7F1FB0022934BFEF7EAFB06460F4658
:101C300022462B4610461946FEF7E5FB32463B4648
:101C4000FEF7E1FB064600980F46F0B1FEF7E4FD13
:101C500080468A46824A834BFEF7D5FB32463B4696
:101C6000FEF7CEFB22462B46FEF7C7FB05460C4689
:101C70007D4A7E4B40465146FEF7C5FB10B02A46D2
:101C80002346BDE8F04DFEF7B8BB0B4610B0324618
:101C900020462946BDE8F04DFEF7AFBB00224FF0CD
:101CA00080432046FEF708FB02460B4620462946A5
:101CB000FEF71BFC06460F460098FEF7ADFDCDE98A
:101CC000040132463B4610463946FEF79CFB0C9019
:101CD00069480C9A4044019009910B461046FEF762
:101CE00092FB8246024665488B46C8F151080B4676
:101CF00008F5D72803217844FFF769FC52465B4674
:101D0000FEF781FB0A905E480D9152465B46042126
:101D10007844FFF75CFC099B0C9AFEF774FB844641
:101D200001980D9B40EA080860460A9AFEF7C4FA3B
:101D300083460891B8F1000F4EDD4FF0FF32204688
:101D40002946FEF752FD22462B46FEF75CFB8046F5
:101D500000988A4660B3DDE90401414A414BFEF731
:101D600052FB099100905A4640465146089BFEF7A7
:101D7000A3FA32463B46FEF746FB099B009AFEF764
:101D80009BFA42465346FEF73BFB22462B46FEF7A4
:101D900034FB04460D46DDE90401334A334BFEF7BC
:101DA00032FB10B022462B46BDE8F04DFEF725BBB6
:101DB0005A464046089BFEF77FFA32463B46FEF7FE
:101DC00022FB42465346FEF71BFB10B022462B4631
:101DD000BDE8F04DFEF714BB009840B3DDE9040107
:101DE0001F4A204BFEF70FFB80468A465A46204684
:101DF0002946089BFEF701FB32463B46FEF703FBF4
:101E000042465346FEF7F9FA22462B46FEF7F5FA0C
:101E100004460D46DDE90401134A144BFEF7F3FABC
:101E200010B022462B46BDE8F04DFEF7E6BA0B4651
:101E30005A4620462946FEF7E0FA32463B46FEF770
:101E4000E2FA10B022462B46BDE8F04DFEF7D8BAB4
:101E50000000F07F645F09000000F03F56050000BD
:101E6000763C7935EF39EA3D0000E0FE422EE63F50
:101E70005555D53F0000E03F86EBF9FFEE0300002B
:101E8000EC0300004FF4A060FFF798F80020FFF784
:101E90007DF9FFF717FC00BFFEE710B502460120F1
:101EA00000E050430B1EA1F10104E1B2F9D110BDD5
:101EB00010B5FFF7A9FC10BD70B52DE00A21012077
:101EC000FEF7B6FF0446FEF788FB15490860084692
:101ED0000068FEF787FB84B22046FEF747FE1149F3
:101EE000486011480078401C0F4908700846007887
:101EF0000A2190FBF1F201FB120060B9084800686A
:101F0000FEF770FB85B22846FEF730FE0446FEF76A
:101F100069FB0649086000E0D0E700BF70BD000023
:101F200018000020240000201C00002004000020D5
:101F300010B500240020FEF7B3FF0446012C09D1A0
:101F400013480068632822D211480068401C1049D9
:101F500008601CE0022C08D10D480068B8B10C489C
:101F60000068401E0A49086011E0032C0FD109489F
:101F7000006828B90120074908600749086006E0A1
:101F800004480068012802D100200249086010BD01
:101F9000080000200C0000201000002008B50020E0
:101FA000022300901148002102680920FFF7E5FC98
:101FB000FFF70EF80E480068012809D1002002231F
:101FC00000900C48012102680920FFF7D6FC0BE0C5
:101FD0000023202201210920FFF78AFC0023202270
:101FE00001210A20FFF784FC08BD00000400002046
:101FF0000C000020080000202348006801280DD1B3
:1020000022480068322802D22048006818B900200F
:102010001F49086002E001201D4908601D48006852
:1020200001282FD11848006828BB1B4800681749B1
:102030000968884208D90020154908310860012044
:102040001649C1F8B4011DE0134800680F4909683A
:10205000884208D200200E490C31086001200F4947
:10206000C1F8B0010EE001200949083108600B49B0
:10207000C1F8B40106E001200549083108600749AC
:10208000C1F8B401704700000C00002008000020D7
:10209000A88121421000002004000020008021427D
:1020A00010B5FFF7D7FB05A200210846FFF7A8FCF3
:1020B00007A201210020FFF7A3FC10BD2020202053
:1020C00054656D703A2020202063202020200000DD
:1020D00020202020205365743A20206320202020D7
:1020E000000000000000000004FA97999999D93F78
:1020F000AF788E1DC571CC3F9FC678D0099AC33F7B
:10210000935555555555E53F599322942449D23F4F
:10211000DE03CB966446C73F44523EDF12F1C23F16
:10212000000000000000000048210008000000201E
:10213000240000009A1600086C21000824000020EA
:1021400044040000AA16000801000000000000007E
:102150001E00000000000000000000000000000061
:0C21600000000000000000000000000073
:04000005080000ED02
:00000001FF
